{
  "contractName": "geoCacheContract",
  "abi": [
    {
      "inputs": [],
      "payable": false,
      "stateMutability": "nonpayable",
      "type": "constructor"
    },
    {
      "constant": true,
      "inputs": [
        {
          "internalType": "uint256",
          "name": "number",
          "type": "uint256"
        }
      ],
      "name": "getName",
      "outputs": [
        {
          "internalType": "string",
          "name": "",
          "type": "string"
        }
      ],
      "payable": false,
      "stateMutability": "view",
      "type": "function"
    },
    {
      "constant": true,
      "inputs": [
        {
          "internalType": "uint256",
          "name": "number",
          "type": "uint256"
        }
      ],
      "name": "getSightingTime",
      "outputs": [
        {
          "internalType": "uint256",
          "name": "",
          "type": "uint256"
        }
      ],
      "payable": false,
      "stateMutability": "view",
      "type": "function"
    },
    {
      "constant": true,
      "inputs": [],
      "name": "getMyTotal",
      "outputs": [
        {
          "internalType": "uint256",
          "name": "",
          "type": "uint256"
        }
      ],
      "payable": false,
      "stateMutability": "view",
      "type": "function"
    },
    {
      "constant": false,
      "inputs": [
        {
          "internalType": "string",
          "name": "_cacheId",
          "type": "string"
        }
      ],
      "name": "addGeoCache",
      "outputs": [],
      "payable": false,
      "stateMutability": "nonpayable",
      "type": "function"
    }
  ],
  "bytecode": "0x60806040523480156200001157600080fd5b50620000586040518060400160405280600a81526020017f686f6c7920677261696c000000000000000000000000000000000000000000008152506200005e60201b60201c565b6200058a565b6200006f81620001f660201b60201c565b15620001f357600160003373ffffffffffffffffffffffffffffffffffffffff1673ffffffffffffffffffffffffffffffffffffffff168152602001908152602001600020600081548092919060010191905055506000803373ffffffffffffffffffffffffffffffffffffffff1673ffffffffffffffffffffffffffffffffffffffff1681526020019081526020016000206040518060800160405280600160003373ffffffffffffffffffffffffffffffffffffffff1673ffffffffffffffffffffffffffffffffffffffff1681526020019081526020016000205481526020018381526020016200016984620003bf60201b60201c565b81526020014281525090806001815401808255809150509060018203906000526020600020906004020160009091929091909150600082015181600001556020820151816001019080519060200190620001c5929190620004db565b506040820151816002019080519060200190620001e4929190620004db565b50606082015181600301555050505b50565b600080600090505b6000803373ffffffffffffffffffffffffffffffffffffffff1673ffffffffffffffffffffffffffffffffffffffff16815260200190815260200160002080549050811015620003b4576000803373ffffffffffffffffffffffffffffffffffffffff1673ffffffffffffffffffffffffffffffffffffffff16815260200190815260200160002081815481106200029257fe5b90600052602060002090600402016001016040516020018082805460018160011615610100020316600290048015620003055780601f10620002e257610100808354040283529182019162000305565b820191906000526020600020905b815481529060010190602001808311620002f0575b505091505060405160208183030381529060405280519060200120836040516020018082805190602001908083835b6020831062000359578051825260208201915060208101905060208303925062000334565b6001836020036101000a038019825116818451168082178552505050505050905001915050604051602081830303815290604052805190602001201415620003a6576000915050620003ba565b8080600101915050620001fe565b50600190505b919050565b6060620004086040518060400160405280600681526020017f4361636865200000000000000000000000000000000000000000000000000000815250836200040f60201b60201c565b9050919050565b606082826040516020018083805190602001908083835b602083106200044b578051825260208201915060208101905060208303925062000426565b6001836020036101000a03801982511681845116808217855250505050505090500182805190602001908083835b602083106200049e578051825260208201915060208101905060208303925062000479565b6001836020036101000a03801982511681845116808217855250505050505090500192505050604051602081830303815290604052905092915050565b828054600181600116156101000203166002900490600052602060002090601f016020900481019282601f106200051e57805160ff19168380011785556200054f565b828001600101855582156200054f579182015b828111156200054e57825182559160200191906001019062000531565b5b5090506200055e919062000562565b5090565b6200058791905b808211156200058357600081600090555060010162000569565b5090565b90565b6108e5806200059a6000396000f3fe608060405234801561001057600080fd5b506004361061004c5760003560e01c80636b8ff57414610051578063ab36de07146100f8578063e1578b2b146101b3578063e51418e6146101d1575b600080fd5b61007d6004803603602081101561006757600080fd5b8101908080359060200190929190505050610213565b6040518080602001828103825283818151815260200191508051906020019080838360005b838110156100bd5780820151818401526020810190506100a2565b50505050905090810190601f1680156100ea5780820380516001836020036101000a031916815260200191505b509250505060405180910390f35b6101b16004803603602081101561010e57600080fd5b810190808035906020019064010000000081111561012b57600080fd5b82018360208201111561013d57600080fd5b8035906020019184600183028401116401000000008311171561015f57600080fd5b91908080601f016020809104026020016040519081016040528093929190818152602001838380828437600081840152601f19601f82011690508083019250505050505050919291929050505061030f565b005b6101bb610492565b6040518082815260200191505060405180910390f35b6101fd600480360360208110156101e757600080fd5b81019080803590602001909291905050506104d9565b6040518082815260200191505060405180910390f35b60606000803373ffffffffffffffffffffffffffffffffffffffff1673ffffffffffffffffffffffffffffffffffffffff168152602001908152602001600020828154811061025e57fe5b90600052602060002090600402016002018054600181600116156101000203166002900480601f0160208091040260200160405190810160405280929190818152602001828054600181600116156101000203166002900480156103035780601f106102d857610100808354040283529160200191610303565b820191906000526020600020905b8154815290600101906020018083116102e657829003601f168201915b50505050509050919050565b6103188161053d565b1561048f57600160003373ffffffffffffffffffffffffffffffffffffffff1673ffffffffffffffffffffffffffffffffffffffff168152602001908152602001600020600081548092919060010191905055506000803373ffffffffffffffffffffffffffffffffffffffff1673ffffffffffffffffffffffffffffffffffffffff1681526020019081526020016000206040518060800160405280600160003373ffffffffffffffffffffffffffffffffffffffff1673ffffffffffffffffffffffffffffffffffffffff168152602001908152602001600020548152602001838152602001610409846106fb565b8152602001428152509080600181540180825580915050906001820390600052602060002090600402016000909192909190915060008201518160000155602082015181600101908051906020019061046392919061080b565b50604082015181600201908051906020019061048092919061080b565b50606082015181600301555050505b50565b6000600160003373ffffffffffffffffffffffffffffffffffffffff1673ffffffffffffffffffffffffffffffffffffffff16815260200190815260200160002054905090565b60008060003373ffffffffffffffffffffffffffffffffffffffff1673ffffffffffffffffffffffffffffffffffffffff168152602001908152602001600020828154811061052457fe5b9060005260206000209060040201600301549050919050565b600080600090505b6000803373ffffffffffffffffffffffffffffffffffffffff1673ffffffffffffffffffffffffffffffffffffffff168152602001908152602001600020805490508110156106f0576000803373ffffffffffffffffffffffffffffffffffffffff1673ffffffffffffffffffffffffffffffffffffffff16815260200190815260200160002081815481106105d757fe5b906000526020600020906004020160010160405160200180828054600181600116156101000203166002900480156106465780601f10610624576101008083540402835291820191610646565b820191906000526020600020905b815481529060010190602001808311610632575b505091505060405160208183030381529060405280519060200120836040516020018082805190602001908083835b602083106106985780518252602082019150602081019050602083039250610675565b6001836020036101000a0380198251168184511680821785525050505050509050019150506040516020818303038152906040528051906020012014156106e35760009150506106f6565b8080600101915050610545565b50600190505b919050565b606061073c6040518060400160405280600681526020017f436163686520000000000000000000000000000000000000000000000000000081525083610743565b9050919050565b606082826040516020018083805190602001908083835b6020831061077d578051825260208201915060208101905060208303925061075a565b6001836020036101000a03801982511681845116808217855250505050505090500182805190602001908083835b602083106107ce57805182526020820191506020810190506020830392506107ab565b6001836020036101000a03801982511681845116808217855250505050505090500192505050604051602081830303815290604052905092915050565b828054600181600116156101000203166002900490600052602060002090601f016020900481019282601f1061084c57805160ff191683800117855561087a565b8280016001018555821561087a579182015b8281111561087957825182559160200191906001019061085e565b5b509050610887919061088b565b5090565b6108ad91905b808211156108a9576000816000905550600101610891565b5090565b9056fea265627a7a7231582063df2dedc8062993d4c713d0494dd4af8963ac9249db5cf38fe07348e9a3a8ee64736f6c63430005100032",
  "source": "// SPDX-License-Identifier: MIT\r\npragma solidity >=0.4.0 <0.9.0;\r\n\r\ncontract geoCacheContract {\r\n    \r\n    /*\r\n    The purpose of this smart is to track found geocaches based on user addresses.\r\n    Here the cache is represented by an identifier (any string) and a name (word \"cache\" after id).\r\n    On a later version the cache could be replaced with an NFT, e.g. in a way that first finder owns the NFT but others can still find it. \r\n    This version works as a showcase of the core functionality.\r\n    */\r\n\r\n    //the data structure for the items stored in blockchain\r\n    struct geoCacheFound {\r\n        uint foundId;       //iterates 1, 2, 3, ... for each person\r\n        string cacheId;     //unique identifier that the user will give as an input (e.g. something from real world)\r\n        string name;        //name the name for the geocache\r\n        uint foundTime;     //timestamp\r\n    }\r\n\r\n    //mappings for user data. \r\n    mapping (address => geoCacheFound[]) myCacheList;   //mapping that locates the array of structs based on user's address. \r\n    mapping (address => uint) counter;  //mapping that connects an uint value to an address. This works as a counter of items. \r\n\r\n    constructor() public\r\n    {\r\n        addGeoCache(\"holy grail\");\r\n    }\r\n\r\n    //get methods for data\r\n    function getName(uint number) public view returns (string memory) {\r\n        return myCacheList[msg.sender][number].name;\r\n    }\r\n    function getSightingTime(uint number) public view returns (uint) {\r\n        return myCacheList[msg.sender][number].foundTime;\r\n    }\r\n    function getMyTotal() public view returns (uint) {\r\n        return counter[msg.sender];\r\n    }\r\n    \r\n    //compares the hash values of a gived id and the ids in user's cachelist to prevent finding same cache\r\n    function checkFindable(string memory _cacheId) private view returns (bool) {\r\n        for (uint i = 0; i < myCacheList[msg.sender].length; i++) {\r\n            if (keccak256(abi.encodePacked(_cacheId)) == keccak256(abi.encodePacked(myCacheList[msg.sender][i].cacheId))) {\r\n                return false;\r\n            }\r\n        }\r\n        return true;\r\n    }\r\n\r\n    //function for storing found geocaches on the blockchain\r\n    function addGeoCache(string memory _cacheId) public {\r\n        if(checkFindable(_cacheId)) {       //check for duplicates\r\n            counter[msg.sender]++;          //+1 to counter\r\n            myCacheList[msg.sender].push(geoCacheFound( //add the values as dictated by the geoCacheFound struct\r\n                counter[msg.sender],        \r\n                _cacheId,\r\n                nameById(_cacheId),\r\n                block.timestamp\r\n            ));\r\n        }\r\n    }\r\n    \r\n    //Ideally there would be some kind of generation method or way of fetching data for cache names, but now it's just cache + id\r\n    function nameById(string memory _cacheId) private pure returns (string memory) {\r\n        return append(\"Cache \", _cacheId);\r\n    }\r\n\r\n    //append strings\r\n    function append(string memory first, string memory second) internal pure returns (string memory) {\r\n        return string(abi.encodePacked(first, second));\r\n    }\r\n    \r\n}",
  "sourcePath": "C:\\Users\\Tuomas\\Documents\\Kalaketju\\kalaketju\\contracts\\geocache.sol",
  "compiler": {
    "name": "solc",
    "version": "0.5.16+commit.9c3226ce.Emscripten.clang"
  },
  "schemaVersion": "3.4.7",
  "updatedAt": "2022-05-16T20:05:38.680Z",
  "devdoc": {
    "methods": {}
  },
  "userdoc": {
    "methods": {}
  }
}