{
  "contractName": "poemContract",
  "abi": [
    {
      "inputs": [],
      "payable": false,
      "stateMutability": "nonpayable",
      "type": "constructor"
    },
    {
      "constant": true,
      "inputs": [
        {
          "internalType": "uint256",
          "name": "number",
          "type": "uint256"
        }
      ],
      "name": "getPoemName",
      "outputs": [
        {
          "internalType": "string",
          "name": "",
          "type": "string"
        }
      ],
      "payable": false,
      "stateMutability": "view",
      "type": "function"
    },
    {
      "constant": true,
      "inputs": [],
      "name": "getMyPoemCount",
      "outputs": [
        {
          "internalType": "uint256",
          "name": "",
          "type": "uint256"
        }
      ],
      "payable": false,
      "stateMutability": "view",
      "type": "function"
    },
    {
      "constant": false,
      "inputs": [
        {
          "internalType": "string",
          "name": "_poemAuthor",
          "type": "string"
        },
        {
          "internalType": "string",
          "name": "_poemName",
          "type": "string"
        },
        {
          "internalType": "string",
          "name": "_poemcontent",
          "type": "string"
        }
      ],
      "name": "addPoem",
      "outputs": [],
      "payable": false,
      "stateMutability": "nonpayable",
      "type": "function"
    }
  ],
  "bytecode": "0x60806040523480156200001157600080fd5b50620000c46040518060400160405280600681526020017f54656b696a6100000000000000000000000000000000000000000000000000008152506040518060400160405280600481526020017f6e696d69000000000000000000000000000000000000000000000000000000008152506040518060400160405280600d81526020017f6c696972756d206c616172756d00000000000000000000000000000000000000815250620000ca60201b60201c565b620004e1565b620000db826200026960201b60201c565b156200026457600160003373ffffffffffffffffffffffffffffffffffffffff1673ffffffffffffffffffffffffffffffffffffffff168152602001908152602001600020600081548092919060010191905055506000803373ffffffffffffffffffffffffffffffffffffffff1673ffffffffffffffffffffffffffffffffffffffff1681526020019081526020016000206040518060800160405280600160003373ffffffffffffffffffffffffffffffffffffffff1673ffffffffffffffffffffffffffffffffffffffff16815260200190815260200160002054815260200185815260200184815260200183815250908060018154018082558091505090600182039060005260206000209060040201600090919290919091506000820151816000015560208201518160010190805190602001906200022192919062000432565b5060408201518160020190805190602001906200024092919062000432565b5060608201518160030190805190602001906200025f92919062000432565b505050505b505050565b600080600090505b6000803373ffffffffffffffffffffffffffffffffffffffff1673ffffffffffffffffffffffffffffffffffffffff1681526020019081526020016000208054905081101562000427576000803373ffffffffffffffffffffffffffffffffffffffff1673ffffffffffffffffffffffffffffffffffffffff16815260200190815260200160002081815481106200030557fe5b90600052602060002090600402016002016040516020018082805460018160011615610100020316600290048015620003785780601f106200035557610100808354040283529182019162000378565b820191906000526020600020905b81548152906001019060200180831162000363575b505091505060405160208183030381529060405280519060200120836040516020018082805190602001908083835b60208310620003cc5780518252602082019150602081019050602083039250620003a7565b6001836020036101000a038019825116818451168082178552505050505050905001915050604051602081830303815290604052805190602001201415620004195760009150506200042d565b808060010191505062000271565b50600190505b919050565b828054600181600116156101000203166002900490600052602060002090601f016020900481019282601f106200047557805160ff1916838001178555620004a6565b82800160010185558215620004a6579182015b82811115620004a557825182559160200191906001019062000488565b5b509050620004b59190620004b9565b5090565b620004de91905b80821115620004da576000816000905550600101620004c0565b5090565b90565b61085f80620004f16000396000f3fe608060405234801561001057600080fd5b50600436106100415760003560e01c8063cd6736ef14610046578063e3e783571461022f578063fd0f15b11461024d575b600080fd5b61022d6004803603606081101561005c57600080fd5b810190808035906020019064010000000081111561007957600080fd5b82018360208201111561008b57600080fd5b803590602001918460018302840111640100000000831117156100ad57600080fd5b91908080601f016020809104026020016040519081016040528093929190818152602001838380828437600081840152601f19601f8201169050808301925050505050505091929192908035906020019064010000000081111561011057600080fd5b82018360208201111561012257600080fd5b8035906020019184600183028401116401000000008311171561014457600080fd5b91908080601f016020809104026020016040519081016040528093929190818152602001838380828437600081840152601f19601f820116905080830192505050505050509192919290803590602001906401000000008111156101a757600080fd5b8201836020820111156101b957600080fd5b803590602001918460018302840111640100000000831117156101db57600080fd5b91908080601f016020809104026020016040519081016040528093929190818152602001838380828437600081840152601f19601f8201169050808301925050505050505091929192905050506102f4565b005b610237610484565b6040518082815260200191505060405180910390f35b6102796004803603602081101561026357600080fd5b81019080803590602001909291905050506104cb565b6040518080602001828103825283818151815260200191508051906020019080838360005b838110156102b957808201518184015260208101905061029e565b50505050905090810190601f1680156102e65780820380516001836020036101000a031916815260200191505b509250505060405180910390f35b6102fd826105c7565b1561047f57600160003373ffffffffffffffffffffffffffffffffffffffff1673ffffffffffffffffffffffffffffffffffffffff168152602001908152602001600020600081548092919060010191905055506000803373ffffffffffffffffffffffffffffffffffffffff1673ffffffffffffffffffffffffffffffffffffffff1681526020019081526020016000206040518060800160405280600160003373ffffffffffffffffffffffffffffffffffffffff1673ffffffffffffffffffffffffffffffffffffffff1681526020019081526020016000205481526020018581526020018481526020018381525090806001815401808255809150509060018203906000526020600020906004020160009091929091909150600082015181600001556020820151816001019080519060200190610440929190610785565b50604082015181600201908051906020019061045d929190610785565b50606082015181600301908051906020019061047a929190610785565b505050505b505050565b6000600160003373ffffffffffffffffffffffffffffffffffffffff1673ffffffffffffffffffffffffffffffffffffffff16815260200190815260200160002054905090565b60606000803373ffffffffffffffffffffffffffffffffffffffff1673ffffffffffffffffffffffffffffffffffffffff168152602001908152602001600020828154811061051657fe5b90600052602060002090600402016002018054600181600116156101000203166002900480601f0160208091040260200160405190810160405280929190818152602001828054600181600116156101000203166002900480156105bb5780601f10610590576101008083540402835291602001916105bb565b820191906000526020600020905b81548152906001019060200180831161059e57829003601f168201915b50505050509050919050565b600080600090505b6000803373ffffffffffffffffffffffffffffffffffffffff1673ffffffffffffffffffffffffffffffffffffffff1681526020019081526020016000208054905081101561077a576000803373ffffffffffffffffffffffffffffffffffffffff1673ffffffffffffffffffffffffffffffffffffffff168152602001908152602001600020818154811061066157fe5b906000526020600020906004020160020160405160200180828054600181600116156101000203166002900480156106d05780601f106106ae5761010080835404028352918201916106d0565b820191906000526020600020905b8154815290600101906020018083116106bc575b505091505060405160208183030381529060405280519060200120836040516020018082805190602001908083835b6020831061072257805182526020820191506020810190506020830392506106ff565b6001836020036101000a03801982511681845116808217855250505050505090500191505060405160208183030381529060405280519060200120141561076d576000915050610780565b80806001019150506105cf565b50600190505b919050565b828054600181600116156101000203166002900490600052602060002090601f016020900481019282601f106107c657805160ff19168380011785556107f4565b828001600101855582156107f4579182015b828111156107f35782518255916020019190600101906107d8565b5b5090506108019190610805565b5090565b61082791905b8082111561082357600081600090555060010161080b565b5090565b9056fea265627a7a72315820d8206d9654b71f75b5e53fd65be4f28a02984d12e83bca0c4da27ebb6a5d7ffc64736f6c63430005100032",
  "source": "// SPDX-License-Identifier: MIT\r\npragma solidity >=0.4.0 <0.9.0;\r\n\r\ncontract poemContract {\r\n    /* Purpose of this smart contract is to track poems based on address. Poem is identified as string\r\n    */\r\n\r\n    // structure of contract\r\n    struct poem {\r\n        uint authorId;\r\n        string poemAuthor;\r\n        string poemName;\r\n        string poemContent;\r\n    }\r\n\r\n    mapping (address => poem[]) myPoemList;\r\n    mapping (address => uint) counter;\r\n\r\n    constructor() public {\r\n        addPoem(\"Tekija\", \"nimi\", \"liirum laarum\");\r\n    }\r\n\r\n    function getPoemName(uint number) public view returns (string memory) {\r\n        return myPoemList[msg.sender][number].poemName;\r\n    }\r\n\r\n    function getMyPoemCount() public view returns (uint) {\r\n        return counter[msg.sender];\r\n    }\r\n\r\n    function checkPoemsNames(string memory _poemName) private view returns (bool) {\r\n        for (uint i = 0; i < myPoemList[msg.sender].length; i++) {\r\n            if (keccak256(abi.encodePacked(_poemName)) == keccak256(abi.encodePacked(myPoemList[msg.sender][i].poemName))) {\r\n                return false;\r\n            }\r\n        }\r\n        return true;\r\n    }\r\n\r\n    function addPoem(string memory _poemAuthor, string memory _poemName, string memory _poemcontent) public {\r\n        if(checkPoemsNames(_poemName)) {\r\n            counter[msg.sender]++;\r\n            myPoemList[msg.sender].push(poem(\r\n                counter[msg.sender],\r\n                _poemAuthor,\r\n                _poemName,\r\n                _poemcontent\r\n\r\n            ));\r\n        }\r\n    }\r\n\r\n    function poemById(string memory _poemName) private pure returns (string memory){\r\n        return (_poemName);\r\n    }\r\n\r\n}",
  "sourcePath": "C:\\Users\\Tuomas\\Documents\\Kalaketju\\kalaketju\\contracts\\poem.sol",
  "compiler": {
    "name": "solc",
    "version": "0.5.16+commit.9c3226ce.Emscripten.clang"
  },
  "schemaVersion": "3.4.7",
  "updatedAt": "2022-05-16T20:05:42.923Z",
  "networkType": "ethereum",
  "devdoc": {
    "methods": {}
  },
  "userdoc": {
    "methods": {}
  }
}