{
  "contractName": "poemContract",
  "abi": [
    {
      "inputs": [],
      "payable": false,
      "stateMutability": "nonpayable",
      "type": "constructor"
    },
    {
      "constant": false,
      "inputs": [
        {
          "internalType": "string",
          "name": "_poemAuthor",
          "type": "string"
        },
        {
          "internalType": "string",
          "name": "_poemName",
          "type": "string"
        },
        {
          "internalType": "string",
          "name": "_poemcontent",
          "type": "string"
        }
      ],
      "name": "addPoem",
      "outputs": [],
      "payable": false,
      "stateMutability": "nonpayable",
      "type": "function"
    }
  ],
  "bytecode": "0x608060405234801561001057600080fd5b506100c16040518060400160405280600681526020017f54656b696a6100000000000000000000000000000000000000000000000000008152506040518060400160405280600481526020017f6e696d69000000000000000000000000000000000000000000000000000000008152506040518060400160405280600d81526020017f6c696972756d206c616172756d000000000000000000000000000000000000008152506100c660201b60201c565b6104bf565b6100d58261025c60201b60201c565b1561025757600160003373ffffffffffffffffffffffffffffffffffffffff1673ffffffffffffffffffffffffffffffffffffffff168152602001908152602001600020600081548092919060010191905055506000803373ffffffffffffffffffffffffffffffffffffffff1673ffffffffffffffffffffffffffffffffffffffff1681526020019081526020016000206040518060800160405280600160003373ffffffffffffffffffffffffffffffffffffffff1673ffffffffffffffffffffffffffffffffffffffff168152602001908152602001600020548152602001858152602001848152602001838152509080600181540180825580915050906001820390600052602060002090600402016000909192909190915060008201518160000155602082015181600101908051906020019061021892919061041a565b50604082015181600201908051906020019061023592919061041a565b50606082015181600301908051906020019061025292919061041a565b505050505b505050565b600080600090505b6000803373ffffffffffffffffffffffffffffffffffffffff1673ffffffffffffffffffffffffffffffffffffffff1681526020019081526020016000208054905081101561040f576000803373ffffffffffffffffffffffffffffffffffffffff1673ffffffffffffffffffffffffffffffffffffffff16815260200190815260200160002081815481106102f657fe5b906000526020600020906004020160020160405160200180828054600181600116156101000203166002900480156103655780601f10610343576101008083540402835291820191610365565b820191906000526020600020905b815481529060010190602001808311610351575b505091505060405160208183030381529060405280519060200120836040516020018082805190602001908083835b602083106103b75780518252602082019150602081019050602083039250610394565b6001836020036101000a038019825116818451168082178552505050505050905001915050604051602081830303815290604052805190602001201415610402576000915050610415565b8080600101915050610264565b50600190505b919050565b828054600181600116156101000203166002900490600052602060002090601f016020900481019282601f1061045b57805160ff1916838001178555610489565b82800160010185558215610489579182015b8281111561048857825182559160200191906001019061046d565b5b509050610496919061049a565b5090565b6104bc91905b808211156104b85760008160009055506001016104a0565b5090565b90565b610641806104ce6000396000f3fe608060405234801561001057600080fd5b506004361061002b5760003560e01c8063cd6736ef14610030575b600080fd5b6102176004803603606081101561004657600080fd5b810190808035906020019064010000000081111561006357600080fd5b82018360208201111561007557600080fd5b8035906020019184600183028401116401000000008311171561009757600080fd5b91908080601f016020809104026020016040519081016040528093929190818152602001838380828437600081840152601f19601f820116905080830192505050505050509192919290803590602001906401000000008111156100fa57600080fd5b82018360208201111561010c57600080fd5b8035906020019184600183028401116401000000008311171561012e57600080fd5b91908080601f016020809104026020016040519081016040528093929190818152602001838380828437600081840152601f19601f8201169050808301925050505050505091929192908035906020019064010000000081111561019157600080fd5b8201836020820111156101a357600080fd5b803590602001918460018302840111640100000000831117156101c557600080fd5b91908080601f016020809104026020016040519081016040528093929190818152602001838380828437600081840152601f19601f820116905080830192505050505050509192919290505050610219565b005b610222826103a9565b156103a457600160003373ffffffffffffffffffffffffffffffffffffffff1673ffffffffffffffffffffffffffffffffffffffff168152602001908152602001600020600081548092919060010191905055506000803373ffffffffffffffffffffffffffffffffffffffff1673ffffffffffffffffffffffffffffffffffffffff1681526020019081526020016000206040518060800160405280600160003373ffffffffffffffffffffffffffffffffffffffff1673ffffffffffffffffffffffffffffffffffffffff1681526020019081526020016000205481526020018581526020018481526020018381525090806001815401808255809150509060018203906000526020600020906004020160009091929091909150600082015181600001556020820151816001019080519060200190610365929190610567565b506040820151816002019080519060200190610382929190610567565b50606082015181600301908051906020019061039f929190610567565b505050505b505050565b600080600090505b6000803373ffffffffffffffffffffffffffffffffffffffff1673ffffffffffffffffffffffffffffffffffffffff1681526020019081526020016000208054905081101561055c576000803373ffffffffffffffffffffffffffffffffffffffff1673ffffffffffffffffffffffffffffffffffffffff168152602001908152602001600020818154811061044357fe5b906000526020600020906004020160020160405160200180828054600181600116156101000203166002900480156104b25780601f106104905761010080835404028352918201916104b2565b820191906000526020600020905b81548152906001019060200180831161049e575b505091505060405160208183030381529060405280519060200120836040516020018082805190602001908083835b6020831061050457805182526020820191506020810190506020830392506104e1565b6001836020036101000a03801982511681845116808217855250505050505090500191505060405160208183030381529060405280519060200120141561054f576000915050610562565b80806001019150506103b1565b50600190505b919050565b828054600181600116156101000203166002900490600052602060002090601f016020900481019282601f106105a857805160ff19168380011785556105d6565b828001600101855582156105d6579182015b828111156105d55782518255916020019190600101906105ba565b5b5090506105e391906105e7565b5090565b61060991905b808211156106055760008160009055506001016105ed565b5090565b9056fea265627a7a7231582061959661682c6b36d26c6b7489a45fc01cbb1f21ceef12c7d27565c74ec0b18964736f6c63430005100032",
  "source": "// SPDX-License-Identifier: MIT\r\npragma solidity >=0.4.0 <0.9.0;\r\n\r\ncontract poemContract {\r\n    /* Purpose of this smart contract is to track poems based on address. Poem is identified as string\r\n    */\r\n\r\n    // structure of contract\r\n    struct poem {\r\n        uint authorId;\r\n        string poemAuthor;\r\n        string poemName;\r\n        string poemContent;\r\n    }\r\n\r\n    mapping (address => poem[]) myPoemList;\r\n    mapping (address => uint) counter;\r\n\r\n    constructor() public {\r\n        addPoem(\"Tekija\", \"nimi\", \"liirum laarum\");\r\n    }\r\n\r\n    function checkPoemsNames(string memory _poemName) private view returns (bool) {\r\n        for (uint i = 0; i < myPoemList[msg.sender].length; i++) {\r\n            if (keccak256(abi.encodePacked(_poemName)) == keccak256(abi.encodePacked(myPoemList[msg.sender][i].poemName))) {\r\n                return false;\r\n            }\r\n        }\r\n        return true;\r\n    }\r\n\r\n    function addPoem(string memory _poemAuthor, string memory _poemName, string memory _poemcontent) public {\r\n        if(checkPoemsNames(_poemName)) {\r\n            counter[msg.sender]++;\r\n            myPoemList[msg.sender].push(poem(\r\n                counter[msg.sender],\r\n                _poemAuthor,\r\n                _poemName,\r\n                _poemcontent\r\n\r\n            ));\r\n        }\r\n    }\r\n\r\n    function poemById(string memory _poemName) private pure returns (string memory){\r\n        return (_poemName);\r\n    }\r\n\r\n}",
  "sourcePath": "C:\\Users\\Tuomas\\Documents\\Kalaketju\\kalaketju\\contracts\\poem.sol",
  "compiler": {
    "name": "solc",
    "version": "0.5.16+commit.9c3226ce.Emscripten.clang"
  },
  "schemaVersion": "3.4.7",
  "updatedAt": "2022-05-16T17:43:41.140Z",
  "devdoc": {
    "methods": {}
  },
  "userdoc": {
    "methods": {}
  }
}